:0400000080310D2816
:100008007E1480314E018D1C0B288031B3207E1068
:10001800090080310F28F901FA01FB014001A9010B
:100028007E104001172844208031232080313B2056
:1000380080319016402080314D20803122281316BF
:100048000C307D01C6007E01431240019413083034
:100058007E01A7004001131307307E019E00431361
:100068000E307D01C50040011A1714130800430122
:1000780090019201121608008B018B170B170800CC
:100088009A12181198109812941212119210921232
:1000980008004001E030A701A70AF2008030F30011
:1000A8002230F4000530F5007B208031A8012808B3
:1000B800DB3E840080300318013E85000008F8000C
:1000C8002808223E860087010108780605300319B2
:1000D8006F28A701A800A80A2802031C5B28270884
:1000E800F200720C031C9A1203189A1608001A13CD
:1000F80043010C084001A101750821020318AD282D
:1001080072087304031D8B2843018C019928730816
:10011800F7007208F60021087607840077080318AC
:10012800770A8500000843018C00AF208031003A2F
:10013800031999280C084001A00074080319AB287A
:1001480021087407F6008600870120088100A10AAB
:1001580080281A17080043010F08013908004301D5
:100168000C08F10079080319C0287B087907F0000A
:100178008600870171088100FB0A7B084001290677
:10018800031DCA281A174E019710D8287A08031990
:10019800D6287B087A07F00086008701010843010A
:1001A8008C00D82843018C014E018D100800993429
:1001B80088347734663455340034FF34AA345534DF
:0201C800003401
:020000040001F9
:08000000FF3FFF3FFF3FFF3F00
:0A000E00ED3FE737FF3FFF3FFF3FE4
:00000001FF
