:040000008031102813
:100008007E1480314E018D1C0A280B280E28803161
:10001800A12080317E10090080311228F701F801F3
:10002800F9014001AD01AE017E1040018031F32895
:1000380081313421803143010C084001A3015C283F
:1000480073087404031D29282A282D2843018C01CC
:100058003B287408A1007308A00023082007840027
:1000680021080318210A8500000843018C0081310A
:1000780029218031003A0319422843283B284301AB
:100088000C084001A0002008A200750803194D289B
:100098004E2858282208A00023087507A100210827
:1000A80086008701200881000130A0002008A307EE
:1000B80076082302031C6128622824288131312113
:1000C800803108004001AB01AB0A1F30F3008130DA
:1000D800F4002630A4002408F5000530A500250802
:1000E800F60080311C2080314001AC012C081A3EFA
:1000F800840081300318013E85000008A4002C0804
:10010800263E860087010108240603198C288D28BD
:100118009228AB010530A4002408AC000130A400EB
:100128002408AC0705302C02031C9B289C287A283D
:100138002B08813112218031080043010C08F0009E
:100148007008F20040012E080319AB28AC28B62825
:100158007208F00078082E07F10071088600870100
:10016800700881000130F0007008F80778087906F7
:10017800031DBF28C028C62881313A2180314E018D
:100188009710D72877080319CA28CB28D5287808C4
:100198007707F000700886008701010843018C008A
:1001A800D72843018C014E018D1008004001131619
:1001B8000C307D01C6007E014312400194130830C3
:1001C8007E01A7004001131307307E019E004313F0
:1001D8000E307D01C50040011A1714130800813143
:1001E800082180318031DA20803181312421803129
:1001F80081313721803181312D2180318031662054
:10020800803105298031102840019A121811981060
:10021800981294121211921092120800F300730CA3
:100228004001031C9A1203189A160800993488345E
:100238007734663455340034FF34AA3455340034E6
:100248004301900192011216080043010F08013979
:1002580008008B018B170B17080040011A170800BC
:1002680040011A13080043019016080040011A17AC
:0202780008007C
:020000040001F9
:08000000FF3FFF3FFF3FFF3F00
:0A000E00ED3FE737FF3FFF3FFF3FE4
:00000001FF
