:040000008031132810
:100008007E1480314E018D1C0D288031F8208031FE
:1000180011280C1E11288031E0207E100900803143
:1000280015283430F0000130F1003330F20001308F
:10003800F3003530F4000130F500FB01FC01A001AC
:10004800A101A201A301A4017E1040012B288D204B
:1000580080314F2080316D2080314C2080311B3021
:10006800F7000130F8007F2080310A30F7000130B6
:10007800F800842080313130F7000130F8007A2010
:1000880080314301901689208031902080314928A1
:100098000C121616080013160C307D01C6007E01DE
:1000A80043124001941308307E01A7004001131742
:1000B80007307E019E0043130E307D01C5004001CC
:1000C800141716307D01C7007E01531754175513B6
:1000D8000800430190011008F0390438900092019B
:1000E80012168C014E018D10971408007808F5003F
:1000F8007708F40008007808F3007708F200080091
:100108007808F1007708F00008008B018B170B17AF
:100118000800181512110800D9208031003A031D73
:10012800080002307B02031C08002C308400813058
:100138008500000843018C0005307B060319B128AF
:100148000030FB01F70077080319AB28AE284001FF
:100158001815B028400118110800F901F90AFA0128
:100168007A08273E840081300318013E8500000884
:10017800F8007A08203E86008701010878060530D5
:100188000319C828F901FA00FA0A7A02031CB428EC
:100198007908F70077080319D228D52840011815DF
:1001A800D72840011811FB010800031040010E1F59
:1001B80003140030093D08007E01551F0800400166
:1001C8000E1FEC2875088A0074080A008031F3288D
:1001D80071088A0070080A00803143018C007E0192
:1001E80055134E010C12080043010C08F600730861
:1001F8008A0072080A00803171088A0070080A00B3
:10020800813143018C004E018D1008000530F60144
:100218007C02031819297C082C3E840081300318BD
:10022800013E85000008F600FC0A76080800053043
:100238007B02031808007B08203E860087017608A9
:100248008100FB0A08000034FF34AA345534003416
:1002580099348834773466345534FC010800080032
:040268000034080056
:020000040001F9
:08000000FF3FFF3FFF3FFF3F00
:0A000E00CD3FE737FF3FFF3FFF3F04
:00000001FF
