:04000000803118280B
:100008007E1480314E018D1C0A280B280F2881315F
:100018001121803116280C1E122813281628803129
:10002800D92080317E10090080311A28813172214F
:100038008031F500813173218031F60081317421DE
:100048008031F700813175218031F80081318521B7
:100058008031A500813186218031A600F901FA019D
:10006800A001A101A201A301A4017E1040018031D9
:100078008A28813151218031003A031D44284528BE
:10008800892802307902031C4A284B2889286330C2
:10009800840081308500000843018C000530790612
:1000A8000319572858285E28F90100308131462164
:1000B800803189284001A701A70AA80128085E3EC7
:1000C800840081300318013E85000008F4002808E8
:1000D800203E8600870101087406031974287528D4
:1000E8007A28A7010530F4007408A8000130F4004C
:1000F8007408A80705302802031C8328842862286E
:100108002708813146218031F901080081317621A3
:1001180080318031B720803181313921803181317E
:100128007E2180312630F3000130F40081315821DE
:100138008031F930F3000030F400813168218031DA
:100148008930F3000130F40081316D218031813133
:100158008221803181317A21803180313D20803186
:10016800B12880311828400113160C307D01C600D3
:100178007E0143124001941308307E01A70040011C
:10018800131707307E019E0043130E307D01C50012
:100198004001141716307D01C7007E01531754170C
:1001A800BF30F3007308D50508007E01551BDD2814
:1001B800DE28DF28F82840010E1FE328E428EA2873
:1001C80078088A0077080A008031F12876088A00C2
:1001D80075080A00803143018C00BF30F2007208B4
:1001E8007E01D5054E010C120800F10105307A0296
:1001F8000318FF2800290F297A08633E84008130FC
:100208000318013E85000008F0007008F100013075
:10021800F0007008FA077108080043010C08F200A2
:100228007208F000400126088A0025080A0081317A
:1002380076088A0075080A00813143018C004E0156
:100248008D1008000530790203182B292C2938292C
:100258007008F1007908203E860087017108810046
:100268000130F1007108F9070800430190011008F6
:10027800F03904389000920112168C014E018D104D
:1002880097140800F300730803194B294E294001FD
:1002980018155029400118110800031040010E1FBD
:1002A80003140030093D080074084001A6007308D3
:1002B800A50008000034FF34AA34553400349934BA
:1002C80088347734663455347408F6007308F500BA
:1002D80008007408F8007308F70008008734013430
:1002E8008C34013440011815121108008B018B174A
:1002F8000B1708004E010C12161608004301901641
:1003080008008B34013400300800FA0108000800A6
:020318000800DB
:020000040001F9
:08000000FF3FFF3FFF3FFF3F00
:0A000E00CD3FE737FF3FFF3FFF3F04
:00000001FF
